:100DBA002D2D2D524649442042617365642D2D2DF7
:100DCA0000417474656E64616E63652050726F6A67
:100DDA00005363616E20596F757220436172643AE1
:100DEA000052666964204E6F2E2069733A004D5096
:100DFA0044313849303033002041747474656E646C
:100E0A006564002041524156494E44004174746E53
:100E1A00642E204E6F2E3A20002564004D50443136
:100E2A0038493030340020417474656E646564005A
:100E3A00204156494E415348004D504431384930BB
:100E4A00313300204D554E4953004D5044313849F5
:100E5A00303238002056494E4159414B20004361F7
:100E6A00726420646F6E2774206578697374005405
:100E7A00727920416E6F74686572204361726400F2
:031118000135009E
:10101300D2A4C2A37F2C7E01121025C2A4C2A37F37
:02102300C81EE5
:10102500E4FDFCC3ED9FEE6480F8EC6480985015F8
:10103500E4FBFA0BBB00010ABA04F8BBFBF50DBDD6
:0510450000010C80DE3B
:01104A002283
:1010E300D290C291D2927F057E00121025C2922225
:1010D000A907E954F0F5901210E3E9C454F0F59033
:0310E0000210E318
:0E10F300C290D2927F057E00121025C292227A
:0910A0007FC87E001210257F01BB
:1010A900A907E954F0F5901210F3E9C454F0F5904A
:0310B9000210F32F
:0B104B007FC01210A97BFF7A0E7916FF
:101056008B088A09890AAB08AA09A90A120E8AFF0F
:1010660060101210D07401250AF50AE43509F50955
:0310760080E422F1
:1010BC007F021210A97F281210A97F0E1210A97F8F
:0410CC00010210A964
:0C110100758920759850758DFDD28E22E6
:0B110D003098FD859935C298AF35225F
:100B5C00D2A61211011210BC7BFF7A0D79BA1210B9
:100B6C00567FC01210A97BFF7A0D79CB1210567FDD
:100B7C00F47E011210257F011210A97BFF7A0D79EA
:100B8C00DB1210567FC01210A9E4F568F568AF6847
:100B9C00EF3395E0FEC3EF9409EE64809480500E21
:100BAC0012110D74232568F8A607056880E07423DC
:100BBC002568F8E4F67F011210A97BFF7A0D79EB1A
:100BCC001210567FC01210A9E4F568AF68EF339588
:100BDC00E0FEC3EF9409EE64809480500D74232FD3
:100BEC00F8E6FF1210D0056880E17F647E001210D9
:100BFC0025750BFF750C0D750DF8750E00750F092D
:100C0C007B007A007923120FA4EF3395E04F7050DC
:100C1C00052EE52E7002052D7F011210A97BFF7A9F
:100C2C000E79021210561210A07BFF7A0E790D125B
:100C3C00105612104B750BFF750C0E750D23852D70
:100C4C000E852E0F7B007A00792212085C7B007ACD
:100C5C00007922121056121013C2A4D2A3020B82D6
:100C6C00750BFF750C0E750D26750E00750F097B37
:100C7C00007A007923120FA4EF3395E04F703705FB
:100C8C0030E5307002052F7F011210A97BFF7A0E20
:100C9C0079301210561210A07BFF7A0E793A12108E
:100CAC005612104B750BFF750C0E750D23852F0E00
:100CBC0085300F020D6A750BFF750C0E750D4375A3
:100CCC000E00750F097B007A007923120FA4EF3305
:100CDC0095E04F70360532E532700205317F011216
:100CEC0010A97BFF7A0E79301210561210A07BFFE0
:100CFC007A0E794D12105612104B750BFF750C0EA7
:100D0C00750D2385310E85320F8053750BFF750CD5
:100D1C000E750D54750E00750F097B007A00792342
:100D2C00120FA4EF3395E04F705A0534E53470027E
:100D3C0005337F011210A97BFF7A0E793012105601
:100D4C001210A07BFF7A0E795E12105612104B75A2
:100D5C000BFF750C0E750D2385330E85340F7B0040
:100D6C007A00792212085C7B007A007922121056E4
:100D7C00121013C2A4D2A37F2C0E121025C2A4C22F
:100D8C00A3020B827F011210A97BFF7A0E796812E5
:100D9C0010567FC01210A97BFF7A0E79791210566B
:0E0DAC00C2A67F2C7E01121025D2A6020B8259
:03000000020F18D4
:0C0F1800787FE4F6D8FD758168020F5F59
:100E8A00BB010689828A83E0225002E722BBFE0266
:090E9A00E32289828A83E4932299
:10080000E517240BF8E60517227808300702780B65
:10081000E475F001120EE2020E8A2000EB7F2ED268
:10082000008018EF540F2490D43440D4FF30040BD0
:10083000EF24BFB41A0050032461FFE518600215CD
:1008400018051BE51B7002051A30070D7808E475C2
:10085000F001120EE2EF020ED00210797403D207FB
:100860008003E4C207F5178B088A09890AE4F518A2
:10087000F51AF51BE51860077F2012083B80F57517
:1008800019FFC201C200C202C203C205C206C208E9
:10089000120809FF700D3007057F0012084CAF1BCE
:1008A000AE1A22B4255FC2D5C204120809FF24D0B3
:1008B000B40A00501A75F00A781830D50508B6FF4A
:1008C0000106C6A426F620D5047002D20380D924DE
:1008D000CFB41A00EF5004C2E5D204020A4CD20190
:1008E00080C6D20080C0D20280BCD2D580BAD205E8
:1008F00080B47F2012083B2002077401B518004025
:10090000F1120800FF12083B020874D208D20680D8
:1009100095120800FB120800FA120800F94A4B7001
:1009200006791D7A0B7BFF20022EE518602A7E00D7
:100930008E82758300120EA360060EEE651970F0AC
:10094000C2D5EBC0E0EAC0E0E9C0E0EE120A93D005
:10095000E0F9D0E0FAD0E0FB120E8AFF60AAEBC00B
:10096000E0EAC0E0E9C0E012083BD0E02401F9D0A1
:10097000E03400FAD0E0FBE5190460DCD519D98039
:10098000877BFF7A0A798FD202809C791080027966
:1009900008C206C2088008D2D5790A8004790AC242
:1009A000D5E519047002F519E4FAFDFEFF120800FE
:1009B000FC7B08200113120800FD7B1030000A1296
:1009C0000800FE120800FF7B20EC3382D592D55040
:1009D00013C3E43000069FFFE49EFEE42001039D64
:1009E000FDE49CFCE4CBF8C201EC700CCFCECDCC86
:1009F000E824F8F870F38017C3EF33FFEE33FEED11
:100A000033FDEC33FCEB33FB994002FB0FD8E9EBF1
:100A1000300105F8D0E0C448B201C0E00AEC4D4E08
:100A20004F78207B0070C2EAB5190040BCC0E012CC
:100A30000A95D0F0D0E0200104C4C0E0C4B201C0E7
:100A4000F0120824D0F0D5F0EB020874120EF2096F
:100A50001153098B5808E24C08DE42098F4F099761
:0F0A60004409974908F743099D550981460981C3
:100A6F00450981470B3D5008E62D08EA2E090D2B4D
:100A7F0008EE23090B200B262A08A64800000905BB
:100A8F003F3F3F00790AA2D5200314300509B91062
:100A9F00020404B9080104A2D52006025001042063
:100AAF0002689202B518005034C0E07F203003195D
:100ABF007F30A20272067205500F120AECC202C2F8
:100ACF0006C205C2087F30800F300503E9C0E0126F
:100ADF00083B300503D0E0F9D0E0B518CC3005174E
:100AEF007F30B9100C12083B7F583004077F788095
:100AFF0003B9080312083B3002057F2D02083B7F24
:100B0F00202008F87F2B2006F322920280CF286E38
:100B1F00756C6C2900D2011208003001F8C20178FF
:100B2F001830D50108F60208A62D5043495812086F
:100B3F00002403B405004001E4900B389312082CF5
:0D0B4F00743A12082CD20375180402098BA9
:100FA4008B088A09890AAB0BAA0CA90D120E8AFEBA
:100FB400AB08AA09A90A120E8AFF6E702BEF600D06
:100FC400E50F150F7002150E14450E70037F0022F5
:100FD4007401250AF50AE43509F5097401250DF5AE
:100FE4000DE4350CF50C80BEAB08AA09A90A120E53
:100FF4008AFDD3EE6480F8ED64809840037F01227B
:0F100400AB0BAA0CA90D120E8AFFC3ED9FFF22A2
:100F2400020B5CE493A3F8E493A34003F68001F27C
:100F340008DFF48029E493A3F85407240CC8C333CE
:100F4400C4540F4420C8834004F456800146F6DF9D
:100F5400E4800B0102040810204080901118E47E04
:100F6400019360BCA3FF543F30E509541FFEE49392
:100F7400A360010ECF54C025E060A840B8E493A359
:100F8400FAE493A3F8E493A3C8C582C8CAC583CA84
:100F9400F0A3C8C582C8CAC583CADFE9DEE780BE3C
:01111B0000D3
:100EA300BB010CE58229F582E5833AF583E0225004
:100EB30006E92582F8E622BBFE06E92582F8E2224E
:0D0EC300E58229F582E5833AF583E4932268
:100ED000BB010689828A83F0225002F722BBFE0101
:020EE000F322FB
:100EE200FAE6FB0808E6F925F0F618E6CA3AF62211
:100EF200D083D082F8E4937012740193700DA3A38F
:100F020093F8740193F5828883E4737402936860A2
:060F1200EFA3A3A380DFA2
:10107900EFB40A07740D121084740A309811A899F4
:10108900B8130CC2983098FDA899C298B811F630D7
:0710990099FDC299F59922AF
:00000001FF
